{"abi":[{"type":"constructor","inputs":[{"name":"_name","type":"string","internalType":"string"},{"name":"_symbol","type":"string","internalType":"string"},{"name":"_maxSupply","type":"uint256","internalType":"uint256"},{"name":"_unitPrice","type":"uint256","internalType":"uint256"},{"name":"_propertyId","type":"uint256","internalType":"uint256"},{"name":"_propertyPrice","type":"uint256","internalType":"uint256"},{"name":"_metadataURI","type":"string","internalType":"string"},{"name":"_annualYield","type":"uint256","internalType":"uint256"},{"name":"admin","type":"address","internalType":"address"}],"stateMutability":"nonpayable"},{"type":"receive","stateMutability":"payable"},{"type":"function","name":"DEFAULT_ADMIN_ROLE","inputs":[],"outputs":[{"name":"","type":"bytes32","internalType":"bytes32"}],"stateMutability":"view"},{"type":"function","name":"MAX_SUPPLY","inputs":[],"outputs":[{"name":"","type":"uint256","internalType":"uint256"}],"stateMutability":"view"},{"type":"function","name":"UNIT_PRICE","inputs":[],"outputs":[{"name":"","type":"uint256","internalType":"uint256"}],"stateMutability":"view"},{"type":"function","name":"allowance","inputs":[{"name":"owner","type":"address","internalType":"address"},{"name":"spender","type":"address","internalType":"address"}],"outputs":[{"name":"","type":"uint256","internalType":"uint256"}],"stateMutability":"view"},{"type":"function","name":"annualYield","inputs":[],"outputs":[{"name":"","type":"uint256","internalType":"uint256"}],"stateMutability":"view"},{"type":"function","name":"approve","inputs":[{"name":"spender","type":"address","internalType":"address"},{"name":"value","type":"uint256","internalType":"uint256"}],"outputs":[{"name":"","type":"bool","internalType":"bool"}],"stateMutability":"nonpayable"},{"type":"function","name":"balanceOf","inputs":[{"name":"account","type":"address","internalType":"address"}],"outputs":[{"name":"","type":"uint256","internalType":"uint256"}],"stateMutability":"view"},{"type":"function","name":"claimRevenue","inputs":[],"outputs":[],"stateMutability":"nonpayable"},{"type":"function","name":"claimableRevenue","inputs":[{"name":"","type":"address","internalType":"address"}],"outputs":[{"name":"","type":"uint256","internalType":"uint256"}],"stateMutability":"view"},{"type":"function","name":"currentRewardPerToken","inputs":[],"outputs":[{"name":"","type":"uint256","internalType":"uint256"}],"stateMutability":"view"},{"type":"function","name":"decimals","inputs":[],"outputs":[{"name":"","type":"uint8","internalType":"uint8"}],"stateMutability":"view"},{"type":"function","name":"distributeMonthlyYield","inputs":[],"outputs":[],"stateMutability":"nonpayable"},{"type":"function","name":"earned","inputs":[{"name":"user","type":"address","internalType":"address"}],"outputs":[{"name":"","type":"uint256","internalType":"uint256"}],"stateMutability":"view"},{"type":"function","name":"getAnnualYield","inputs":[],"outputs":[{"name":"","type":"uint256","internalType":"uint256"}],"stateMutability":"view"},{"type":"function","name":"getAvailableShares","inputs":[],"outputs":[{"name":"","type":"uint256","internalType":"uint256"}],"stateMutability":"view"},{"type":"function","name":"getClaimableRevenue","inputs":[{"name":"user","type":"address","internalType":"address"}],"outputs":[{"name":"","type":"uint256","internalType":"uint256"}],"stateMutability":"view"},{"type":"function","name":"getExpectedMonthlyRevenue","inputs":[],"outputs":[{"name":"","type":"uint256","internalType":"uint256"}],"stateMutability":"view"},{"type":"function","name":"getMetadataURI","inputs":[],"outputs":[{"name":"","type":"string","internalType":"string"}],"stateMutability":"view"},{"type":"function","name":"getPropertyId","inputs":[],"outputs":[{"name":"","type":"uint256","internalType":"uint256"}],"stateMutability":"view"},{"type":"function","name":"getRoleAdmin","inputs":[{"name":"role","type":"bytes32","internalType":"bytes32"}],"outputs":[{"name":"","type":"bytes32","internalType":"bytes32"}],"stateMutability":"view"},{"type":"function","name":"getSoldShares","inputs":[],"outputs":[{"name":"","type":"uint256","internalType":"uint256"}],"stateMutability":"view"},{"type":"function","name":"getUnitPrice","inputs":[],"outputs":[{"name":"","type":"uint256","internalType":"uint256"}],"stateMutability":"view"},{"type":"function","name":"grantRole","inputs":[{"name":"role","type":"bytes32","internalType":"bytes32"},{"name":"account","type":"address","internalType":"address"}],"outputs":[],"stateMutability":"nonpayable"},{"type":"function","name":"hasRole","inputs":[{"name":"role","type":"bytes32","internalType":"bytes32"},{"name":"account","type":"address","internalType":"address"}],"outputs":[{"name":"","type":"bool","internalType":"bool"}],"stateMutability":"view"},{"type":"function","name":"metadataURI","inputs":[],"outputs":[{"name":"","type":"string","internalType":"string"}],"stateMutability":"view"},{"type":"function","name":"mint","inputs":[],"outputs":[{"name":"minted","type":"uint256","internalType":"uint256"}],"stateMutability":"payable"},{"type":"function","name":"name","inputs":[],"outputs":[{"name":"","type":"string","internalType":"string"}],"stateMutability":"view"},{"type":"function","name":"propertyId","inputs":[],"outputs":[{"name":"","type":"uint256","internalType":"uint256"}],"stateMutability":"view"},{"type":"function","name":"propertyPrice","inputs":[],"outputs":[{"name":"","type":"uint256","internalType":"uint256"}],"stateMutability":"view"},{"type":"function","name":"renounceRole","inputs":[{"name":"role","type":"bytes32","internalType":"bytes32"},{"name":"callerConfirmation","type":"address","internalType":"address"}],"outputs":[],"stateMutability":"nonpayable"},{"type":"function","name":"revokeRole","inputs":[{"name":"role","type":"bytes32","internalType":"bytes32"},{"name":"account","type":"address","internalType":"address"}],"outputs":[],"stateMutability":"nonpayable"},{"type":"function","name":"rewardPerTokenStored","inputs":[],"outputs":[{"name":"","type":"uint256","internalType":"uint256"}],"stateMutability":"view"},{"type":"function","name":"supportsInterface","inputs":[{"name":"interfaceId","type":"bytes4","internalType":"bytes4"}],"outputs":[{"name":"","type":"bool","internalType":"bool"}],"stateMutability":"view"},{"type":"function","name":"symbol","inputs":[],"outputs":[{"name":"","type":"string","internalType":"string"}],"stateMutability":"view"},{"type":"function","name":"totalSupply","inputs":[],"outputs":[{"name":"","type":"uint256","internalType":"uint256"}],"stateMutability":"view"},{"type":"function","name":"transfer","inputs":[{"name":"to","type":"address","internalType":"address"},{"name":"value","type":"uint256","internalType":"uint256"}],"outputs":[{"name":"","type":"bool","internalType":"bool"}],"stateMutability":"nonpayable"},{"type":"function","name":"transferFrom","inputs":[{"name":"from","type":"address","internalType":"address"},{"name":"to","type":"address","internalType":"address"},{"name":"value","type":"uint256","internalType":"uint256"}],"outputs":[{"name":"","type":"bool","internalType":"bool"}],"stateMutability":"nonpayable"},{"type":"function","name":"userRewardPerTokenPaid","inputs":[{"name":"","type":"address","internalType":"address"}],"outputs":[{"name":"","type":"uint256","internalType":"uint256"}],"stateMutability":"view"},{"type":"event","name":"Approval","inputs":[{"name":"owner","type":"address","indexed":true,"internalType":"address"},{"name":"spender","type":"address","indexed":true,"internalType":"address"},{"name":"value","type":"uint256","indexed":false,"internalType":"uint256"}],"anonymous":false},{"type":"event","name":"RoleAdminChanged","inputs":[{"name":"role","type":"bytes32","indexed":true,"internalType":"bytes32"},{"name":"previousAdminRole","type":"bytes32","indexed":true,"internalType":"bytes32"},{"name":"newAdminRole","type":"bytes32","indexed":true,"internalType":"bytes32"}],"anonymous":false},{"type":"event","name":"RoleGranted","inputs":[{"name":"role","type":"bytes32","indexed":true,"internalType":"bytes32"},{"name":"account","type":"address","indexed":true,"internalType":"address"},{"name":"sender","type":"address","indexed":true,"internalType":"address"}],"anonymous":false},{"type":"event","name":"RoleRevoked","inputs":[{"name":"role","type":"bytes32","indexed":true,"internalType":"bytes32"},{"name":"account","type":"address","indexed":true,"internalType":"address"},{"name":"sender","type":"address","indexed":true,"internalType":"address"}],"anonymous":false},{"type":"event","name":"Transfer","inputs":[{"name":"from","type":"address","indexed":true,"internalType":"address"},{"name":"to","type":"address","indexed":true,"internalType":"address"},{"name":"value","type":"uint256","indexed":false,"internalType":"uint256"}],"anonymous":false},{"type":"error","name":"AccessControlBadConfirmation","inputs":[]},{"type":"error","name":"AccessControlUnauthorizedAccount","inputs":[{"name":"account","type":"address","internalType":"address"},{"name":"neededRole","type":"bytes32","internalType":"bytes32"}]},{"type":"error","name":"ERC20InsufficientAllowance","inputs":[{"name":"spender","type":"address","internalType":"address"},{"name":"allowance","type":"uint256","internalType":"uint256"},{"name":"needed","type":"uint256","internalType":"uint256"}]},{"type":"error","name":"ERC20InsufficientBalance","inputs":[{"name":"sender","type":"address","internalType":"address"},{"name":"balance","type":"uint256","internalType":"uint256"},{"name":"needed","type":"uint256","internalType":"uint256"}]},{"type":"error","name":"ERC20InvalidApprover","inputs":[{"name":"approver","type":"address","internalType":"address"}]},{"type":"error","name":"ERC20InvalidReceiver","inputs":[{"name":"receiver","type":"address","internalType":"address"}]},{"type":"error","name":"ERC20InvalidSender","inputs":[{"name":"sender","type":"address","internalType":"address"}]},{"type":"error","name":"ERC20InvalidSpender","inputs":[{"name":"spender","type":"address","internalType":"address"}]},{"type":"error","name":"InsufficientFunds","inputs":[]},{"type":"error","name":"MaxSupplyHit","inputs":[]},{"type":"error","name":"NothingToClaim","inputs":[]}],"bytecode":{"object":"0x60c060405234801561000f575f5ffd5b50604051611c16380380611c1683398101604081905261002e91610321565b8888600361003c8382610486565b5060046100498282610486565b5061005891505f9050826101bc565b506100837f470f4f1717679395b6a9e0700797bfeeaa970f1643e72f5684d687c0be10fe27826101bc565b505f86116100d85760405162461bcd60e51b815260206004820152601660248201527f556e6974207072696365206d757374206265203e20300000000000000000000060448201526064015b60405180910390fd5b5f87116101275760405162461bcd60e51b815260206004820152601660248201527f4d617820737570706c79206d757374206265203e20300000000000000000000060448201526064016100cf565b5f84116101765760405162461bcd60e51b815260206004820152601a60248201527f50726f7065727479207072696365206d757374206265203e203000000000000060448201526064016100cf565b6101826012600a610637565b61018c908861064c565b60805260a08690526006859055600784905560096101aa8482610486565b50506008555061066395505050505050565b5f8281526005602090815260408083206001600160a01b038516845290915281205460ff16610260575f8381526005602090815260408083206001600160a01b03861684529091529020805460ff191660011790556102183390565b6001600160a01b0316826001600160a01b0316847f2f8788117e7eff1d82e926ec794901d17c78024a50270940304540a733656f0d60405160405180910390a4506001610263565b505f5b92915050565b634e487b7160e01b5f52604160045260245ffd5b5f82601f83011261028c575f5ffd5b81516001600160401b038111156102a5576102a5610269565b604051601f8201601f19908116603f011681016001600160401b03811182821017156102d3576102d3610269565b6040528181528382016020018510156102ea575f5ffd5b8160208501602083015e5f918101602001919091529392505050565b80516001600160a01b038116811461031c575f5ffd5b919050565b5f5f5f5f5f5f5f5f5f6101208a8c03121561033a575f5ffd5b89516001600160401b0381111561034f575f5ffd5b61035b8c828d0161027d565b60208c0151909a5090506001600160401b03811115610378575f5ffd5b6103848c828d0161027d565b9850505f60408b01519050809750505f60608b01519050809650505f60808b01519050809550505f60a08b015190508094505060c08a015160018060401b038111156103ce575f5ffd5b6103da8c828d0161027d565b60e08c015190945092506103f390506101008b01610306565b90509295985092959850929598565b600181811c9082168061041657607f821691505b60208210810361043457634e487b7160e01b5f52602260045260245ffd5b50919050565b601f82111561048157805f5260205f20601f840160051c8101602085101561045f5750805b601f840160051c820191505b8181101561047e575f815560010161046b565b50505b505050565b81516001600160401b0381111561049f5761049f610269565b6104b3816104ad8454610402565b8461043a565b6020601f8211600181146104e5575f83156104ce5750848201515b5f19600385901b1c1916600184901b17845561047e565b5f84815260208120601f198516915b8281101561051457878501518255602094850194600190920191016104f4565b508482101561053157868401515f19600387901b60f8161c191681555b50505050600190811b01905550565b634e487b7160e01b5f52601160045260245ffd5b6001815b600184111561058f5780850481111561057357610573610540565b600184161561058157908102905b60019390931c928002610558565b935093915050565b5f826105a557506001610263565b816105b157505f610263565b81600181146105c757600281146105d1576105ed565b6001915050610263565b60ff8411156105e2576105e2610540565b50506001821b610263565b5060208310610133831016604e8410600b8410161715610610575081810a610263565b61061c5f198484610554565b805f190482111561062f5761062f610540565b029392505050565b5f61064560ff841683610597565b9392505050565b808202811582820484141761026357610263610540565b60805160a0516115686106ae5f395f818161026a0152818161059d015281816108910152818161096a01526109af01525f81816103f0015281816108b80152610b9a01526115685ff3fe60806040526004361061021f575f3560e01c806370a082311161011e578063ae2a4b1e116100a8578063df136d651161006d578063df136d6514610636578063e7b78ec71461064b578063eacb482b1461065f578063ee7a3b8e1461068a578063f7d8474e1461069f575f5ffd5b8063ae2a4b1e14610578578063afa40bbd1461058c578063ba0aef15146105bf578063d547741f146105d3578063dd62ed3e146105f2575f5ffd5b806391d14854116100ee57806391d14854146104ff57806392d995fe1461051e57806395d89b4114610532578063a217fddf14610546578063a9059cbb14610559575f5ffd5b806370a0823114610478578063817bc0cb146104ac57806386a92af7146104c05780638b876347146104d4575f5ffd5b806323b872dd116101aa57806332cb6b0c1161016f57806332cb6b0c146103df57806333d9eeba1461041257806336568abe146104265780634f4dac6f14610445578063564f4f7614610464575f5ffd5b806323b872dd14610342578063248a9ca3146103615780632f2ff15d1461038f578063313ce567146103b057806332121e23146103cb575f5ffd5b806306fdde03116101f057806306fdde03146102de578063095ea7b3146102f25780630ec3ce59146103115780631249c58b1461032657806318160ddd1461032e575f5ffd5b80628cc2621461022a578063012a33aa1461025c57806301ffc9a71461028e57806303ee438c146102bd575f5ffd5b3661022657005b5f5ffd5b348015610235575f5ffd5b50610249610244366004611259565b6106b4565b6040519081526020015b60405180910390f35b348015610267575f5ffd5b507f0000000000000000000000000000000000000000000000000000000000000000610249565b348015610299575f5ffd5b506102ad6102a8366004611272565b610722565b6040519015158152602001610253565b3480156102c8575f5ffd5b506102d1610758565b6040516102539190611299565b3480156102e9575f5ffd5b506102d16107e4565b3480156102fd575f5ffd5b506102ad61030c3660046112ce565b610874565b34801561031c575f5ffd5b5061024960075481565b61024961088b565b348015610339575f5ffd5b50600254610249565b34801561034d575f5ffd5b506102ad61035c3660046112f6565b6109fc565b34801561036c575f5ffd5b5061024961037b366004611330565b5f9081526005602052604090206001015490565b34801561039a575f5ffd5b506103ae6103a9366004611347565b610a1f565b005b3480156103bb575f5ffd5b5060405160128152602001610253565b3480156103d6575f5ffd5b50610249610a49565b3480156103ea575f5ffd5b506102497f000000000000000000000000000000000000000000000000000000000000000081565b34801561041d575f5ffd5b50600654610249565b348015610431575f5ffd5b506103ae610440366004611347565b610a67565b348015610450575f5ffd5b5061024961045f366004611259565b610a9f565b34801561046f575f5ffd5b506103ae610aa9565b348015610483575f5ffd5b50610249610492366004611259565b6001600160a01b03165f9081526020819052604090205490565b3480156104b7575f5ffd5b50610249610b84565b3480156104cb575f5ffd5b506102d1610bcd565b3480156104df575f5ffd5b506102496104ee366004611259565b600b6020525f908152604090205481565b34801561050a575f5ffd5b506102ad610519366004611347565b610bdc565b348015610529575f5ffd5b50610249610c06565b34801561053d575f5ffd5b506102d1610c26565b348015610551575f5ffd5b506102495f81565b348015610564575f5ffd5b506102ad6105733660046112ce565b610c35565b348015610583575f5ffd5b50600854610249565b348015610597575f5ffd5b506102497f000000000000000000000000000000000000000000000000000000000000000081565b3480156105ca575f5ffd5b50610249610c42565b3480156105de575f5ffd5b506103ae6105ed366004611347565b610c57565b3480156105fd575f5ffd5b5061024961060c366004611371565b6001600160a01b039182165f90815260016020908152604080832093909416825291909152205490565b348015610641575f5ffd5b50610249600a5481565b348015610656575f5ffd5b506103ae610c7b565b34801561066a575f5ffd5b50610249610679366004611259565b600c6020525f908152604090205481565b348015610695575f5ffd5b5061024960065481565b3480156106aa575f5ffd5b5061024960085481565b6001600160a01b0381165f9081526020818152604080832054600c835281842054600b90935290832054909190670de0b6b3a7640000906106f3610a49565b6106fd91906113ad565b61070790846113c0565b61071191906113d7565b61071b91906113f6565b9392505050565b5f6001600160e01b03198216637965db0b60e01b148061075257506301ffc9a760e01b6001600160e01b03198316145b92915050565b6009805461076590611409565b80601f016020809104026020016040519081016040528092919081815260200182805461079190611409565b80156107dc5780601f106107b3576101008083540402835291602001916107dc565b820191905f5260205f20905b8154815290600101906020018083116107bf57829003601f168201915b505050505081565b6060600380546107f390611409565b80601f016020809104026020016040519081016040528092919081815260200182805461081f90611409565b801561086a5780601f106108415761010080835404028352916020019161086a565b820191905f5260205f20905b81548152906001019060200180831161084d57829003601f168201915b5050505050905090565b5f33610881818585610dec565b5060019392505050565b5f6108b67f0000000000000000000000000000000000000000000000000000000000000000346113d7565b7f00000000000000000000000000000000000000000000000000000000000000006108e36012600a611524565b6108ed90836113c0565b6002546108fa91906113f6565b111561091957604051630e09e7bf60e31b815260040160405180910390fd5b33610922610a49565b600a556001600160a01b038116156109685761093d816106b4565b6001600160a01b0382165f908152600c6020908152604080832093909355600a54600b909152919020555b7f00000000000000000000000000000000000000000000000000000000000000003410156109a95760405163356680b760e01b815260040160405180910390fd5b5f6109d47f0000000000000000000000000000000000000000000000000000000000000000346113d7565b90506109f5336109e66012600a611524565b6109f090846113c0565b610df9565b9250505090565b5f33610a09858285610e31565b610a14858585610ea7565b506001949350505050565b5f82815260056020526040902060010154610a3981610f04565b610a438383610f11565b50505050565b5f610a5360025490565b5f03610a605750600a5490565b50600a5490565b6001600160a01b0381163314610a905760405163334bd91960e11b815260040160405180910390fd5b610a9a8282610fa2565b505050565b5f610752826106b4565b33610ab2610a49565b600a556001600160a01b03811615610af857610acd816106b4565b6001600160a01b0382165f908152600c6020908152604080832093909355600a54600b909152919020555b335f908152600c602052604090205480610b4c5760405162461bcd60e51b815260206004820152601060248201526f4e6f7468696e6720746f20636c61696d60801b60448201526064015b60405180910390fd5b335f818152600c60205260408082208290555183156108fc0291849190818181858888f19350505050158015610a9a573d5f5f3e3d5ffd5b5f610b916012600a611524565b600254610bbe907f00000000000000000000000000000000000000000000000000000000000000006113ad565b610bc891906113d7565b905090565b6060600980546107f390611409565b5f9182526005602090815260408084206001600160a01b0393909316845291905290205460ff1690565b5f600c612710600854600754610c1c91906113c0565b610bbe91906113d7565b6060600480546107f390611409565b5f33610881818585610ea7565b5f610c4f6012600a611524565b600254610bbe565b5f82815260056020526040902060010154610c7181610f04565b610a438383610fa2565b7f470f4f1717679395b6a9e0700797bfeeaa970f1643e72f5684d687c0be10fe27610ca581610f04565b5f610cae610a49565b600a556001600160a01b03811615610cf457610cc9816106b4565b6001600160a01b0382165f908152600c6020908152604080832093909355600a54600b909152919020555b5f610cfe60025490565b11610d375760405162461bcd60e51b81526020600482015260096024820152684e6f20737570706c7960b81b6044820152606401610b43565b5f600c612710600854600754610d4d91906113c0565b610d5791906113d7565b610d6191906113d7565b905080471015610db35760405162461bcd60e51b815260206004820152601e60248201527f4e6f7420656e6f7567682062616c616e636520696e20636f6e747261637400006044820152606401610b43565b600254610dc882670de0b6b3a76400006113c0565b610dd291906113d7565b600a5f828254610de291906113f6565b9091555050505050565b610a9a838383600161100d565b6001600160a01b038216610e225760405163ec442f0560e01b81525f6004820152602401610b43565b610e2d5f83836110df565b5050565b6001600160a01b038381165f908152600160209081526040808320938616835292905220545f19811015610a435781811015610e9957604051637dc7a0d960e11b81526001600160a01b03841660048201526024810182905260448101839052606401610b43565b610a4384848484035f61100d565b6001600160a01b038316610ed057604051634b637e8f60e11b81525f6004820152602401610b43565b6001600160a01b038216610ef95760405163ec442f0560e01b81525f6004820152602401610b43565b610a9a8383836110df565b610f0e8133611205565b50565b5f610f1c8383610bdc565b610f9b575f8381526005602090815260408083206001600160a01b03861684529091529020805460ff19166001179055610f533390565b6001600160a01b0316826001600160a01b0316847f2f8788117e7eff1d82e926ec794901d17c78024a50270940304540a733656f0d60405160405180910390a4506001610752565b505f610752565b5f610fad8383610bdc565b15610f9b575f8381526005602090815260408083206001600160a01b0386168085529252808320805460ff1916905551339286917ff6391f5c32d9c69d2a47ea670b442974b53935d1edc7fd64eb21e047a839171b9190a4506001610752565b6001600160a01b0384166110365760405163e602df0560e01b81525f6004820152602401610b43565b6001600160a01b03831661105f57604051634a1406b160e11b81525f6004820152602401610b43565b6001600160a01b038085165f9081526001602090815260408083209387168352929052208290558015610a4357826001600160a01b0316846001600160a01b03167f8c5be1e5ebec7d5bd14f71427d1e84f3dd0314c0f7b2291e5b200ac8c7c3b925846040516110d191815260200190565b60405180910390a350505050565b6001600160a01b038316611109578060025f8282546110fe91906113f6565b909155506111799050565b6001600160a01b0383165f908152602081905260409020548181101561115b5760405163391434e360e21b81526001600160a01b03851660048201526024810182905260448101839052606401610b43565b6001600160a01b0384165f9081526020819052604090209082900390555b6001600160a01b038216611195576002805482900390556111b3565b6001600160a01b0382165f9081526020819052604090208054820190555b816001600160a01b0316836001600160a01b03167fddf252ad1be2c89b69c2b068fc378daa952ba7f163c4a11628f55a4df523b3ef836040516111f891815260200190565b60405180910390a3505050565b61120f8282610bdc565b610e2d5760405163e2517d3f60e01b81526001600160a01b038216600482015260248101839052604401610b43565b80356001600160a01b0381168114611254575f5ffd5b919050565b5f60208284031215611269575f5ffd5b61071b8261123e565b5f60208284031215611282575f5ffd5b81356001600160e01b03198116811461071b575f5ffd5b602081525f82518060208401528060208501604085015e5f604082850101526040601f19601f83011684010191505092915050565b5f5f604083850312156112df575f5ffd5b6112e88361123e565b946020939093013593505050565b5f5f5f60608486031215611308575f5ffd5b6113118461123e565b925061131f6020850161123e565b929592945050506040919091013590565b5f60208284031215611340575f5ffd5b5035919050565b5f5f60408385031215611358575f5ffd5b823591506113686020840161123e565b90509250929050565b5f5f60408385031215611382575f5ffd5b61138b8361123e565b91506113686020840161123e565b634e487b7160e01b5f52601160045260245ffd5b8181038181111561075257610752611399565b808202811582820484141761075257610752611399565b5f826113f157634e487b7160e01b5f52601260045260245ffd5b500490565b8082018082111561075257610752611399565b600181811c9082168061141d57607f821691505b60208210810361143b57634e487b7160e01b5f52602260045260245ffd5b50919050565b6001815b600184111561147c5780850481111561146057611460611399565b600184161561146e57908102905b60019390931c928002611445565b935093915050565b5f8261149257506001610752565b8161149e57505f610752565b81600181146114b457600281146114be576114da565b6001915050610752565b60ff8411156114cf576114cf611399565b50506001821b610752565b5060208310610133831016604e8410600b84101617156114fd575081810a610752565b6115095f198484611441565b805f190482111561151c5761151c611399565b029392505050565b5f61071b60ff84168361148456fea26469706673582212201f20ccbf4ab9726863357f54e9ec3fa3c5f3afa6f31f2ac3a08308c70224c21164736f6c634300081c0033","linkReferences":{}},"methodIdentifiers":{"DEFAULT_ADMIN_ROLE()":"a217fddf","MAX_SUPPLY()":"32cb6b0c","UNIT_PRICE()":"afa40bbd","allowance(address,address)":"dd62ed3e","annualYield()":"f7d8474e","approve(address,uint256)":"095ea7b3","balanceOf(address)":"70a08231","claimRevenue()":"564f4f76","claimableRevenue(address)":"eacb482b","currentRewardPerToken()":"32121e23","decimals()":"313ce567","distributeMonthlyYield()":"e7b78ec7","earned(address)":"008cc262","getAnnualYield()":"ae2a4b1e","getAvailableShares()":"817bc0cb","getClaimableRevenue(address)":"4f4dac6f","getExpectedMonthlyRevenue()":"92d995fe","getMetadataURI()":"86a92af7","getPropertyId()":"33d9eeba","getRoleAdmin(bytes32)":"248a9ca3","getSoldShares()":"ba0aef15","getUnitPrice()":"012a33aa","grantRole(bytes32,address)":"2f2ff15d","hasRole(bytes32,address)":"91d14854","metadataURI()":"03ee438c","mint()":"1249c58b","name()":"06fdde03","propertyId()":"ee7a3b8e","propertyPrice()":"0ec3ce59","renounceRole(bytes32,address)":"36568abe","revokeRole(bytes32,address)":"d547741f","rewardPerTokenStored()":"df136d65","supportsInterface(bytes4)":"01ffc9a7","symbol()":"95d89b41","totalSupply()":"18160ddd","transfer(address,uint256)":"a9059cbb","transferFrom(address,address,uint256)":"23b872dd","userRewardPerTokenPaid(address)":"8b876347"},"id":52}